{
  "contractName": "Certification",
  "abi": [
    {
      "inputs": [],
      "payable": false,
      "stateMutability": "nonpayable",
      "type": "constructor"
    },
    {
      "anonymous": false,
      "inputs": [
        {
          "indexed": false,
          "internalType": "bytes32",
          "name": "_certificateId",
          "type": "bytes32"
        }
      ],
      "name": "certificateGenerated",
      "type": "event"
    },
    {
      "constant": true,
      "inputs": [
        {
          "internalType": "bytes32",
          "name": "",
          "type": "bytes32"
        }
      ],
      "name": "certificates",
      "outputs": [
        {
          "internalType": "string",
          "name": "candidate_name",
          "type": "string"
        },
        {
          "internalType": "string",
          "name": "org_name",
          "type": "string"
        },
        {
          "internalType": "string",
          "name": "course_name",
          "type": "string"
        },
        {
          "internalType": "uint256",
          "name": "expiration_date",
          "type": "uint256"
        }
      ],
      "payable": false,
      "stateMutability": "view",
      "type": "function"
    },
    {
      "constant": false,
      "inputs": [
        {
          "internalType": "string",
          "name": "_id",
          "type": "string"
        },
        {
          "internalType": "string",
          "name": "_candidate_name",
          "type": "string"
        },
        {
          "internalType": "string",
          "name": "_org_name",
          "type": "string"
        },
        {
          "internalType": "string",
          "name": "_course_name",
          "type": "string"
        },
        {
          "internalType": "uint256",
          "name": "_expiration_date",
          "type": "uint256"
        }
      ],
      "name": "generateCertificate",
      "outputs": [],
      "payable": false,
      "stateMutability": "nonpayable",
      "type": "function"
    },
    {
      "constant": true,
      "inputs": [
        {
          "internalType": "string",
          "name": "_id",
          "type": "string"
        }
      ],
      "name": "getData",
      "outputs": [
        {
          "internalType": "string",
          "name": "",
          "type": "string"
        },
        {
          "internalType": "string",
          "name": "",
          "type": "string"
        },
        {
          "internalType": "string",
          "name": "",
          "type": "string"
        },
        {
          "internalType": "uint256",
          "name": "",
          "type": "uint256"
        }
      ],
      "payable": false,
      "stateMutability": "view",
      "type": "function"
    }
  ],
  "bytecode": "0x608060405234801561001057600080fd5b50610dda806100206000396000f3fe608060405234801561001057600080fd5b50600436106100415760003560e01c8063742f068814610046578063ae55c888146101cc578063bc12f6eb146103df575b600080fd5b6100726004803603602081101561005c57600080fd5b8101908080359060200190929190505050610669565b60405180806020018060200180602001858152602001848103845288818151815260200191508051906020019080838360005b838110156100c05780820151818401526020810190506100a5565b50505050905090810190601f1680156100ed5780820380516001836020036101000a031916815260200191505b50848103835287818151815260200191508051906020019080838360005b8381101561012657808201518184015260208101905061010b565b50505050905090810190601f1680156101535780820380516001836020036101000a031916815260200191505b50848103825286818151815260200191508051906020019080838360005b8381101561018c578082015181840152602081019050610171565b50505050905090810190601f1680156101b95780820380516001836020036101000a031916815260200191505b5097505050505050505060405180910390f35b610285600480360360208110156101e257600080fd5b81019080803590602001906401000000008111156101ff57600080fd5b82018360208201111561021157600080fd5b8035906020019184600183028401116401000000008311171561023357600080fd5b91908080601f016020809104026020016040519081016040528093929190818152602001838380828437600081840152601f19601f820116905080830192505050505050509192919290505050610861565b60405180806020018060200180602001858152602001848103845288818151815260200191508051906020019080838360005b838110156102d35780820151818401526020810190506102b8565b50505050905090810190601f1680156103005780820380516001836020036101000a031916815260200191505b50848103835287818151815260200191508051906020019080838360005b8381101561033957808201518184015260208101905061031e565b50505050905090810190601f1680156103665780820380516001836020036101000a031916815260200191505b50848103825286818151815260200191508051906020019080838360005b8381101561039f578082015181840152602081019050610384565b50505050905090810190601f1680156103cc5780820380516001836020036101000a031916815260200191505b5097505050505050505060405180910390f35b610667600480360360a08110156103f557600080fd5b810190808035906020019064010000000081111561041257600080fd5b82018360208201111561042457600080fd5b8035906020019184600183028401116401000000008311171561044657600080fd5b91908080601f016020809104026020016040519081016040528093929190818152602001838380828437600081840152601f19601f820116905080830192505050505050509192919290803590602001906401000000008111156104a957600080fd5b8201836020820111156104bb57600080fd5b803590602001918460018302840111640100000000831117156104dd57600080fd5b91908080601f016020809104026020016040519081016040528093929190818152602001838380828437600081840152601f19601f8201169050808301925050505050505091929192908035906020019064010000000081111561054057600080fd5b82018360208201111561055257600080fd5b8035906020019184600183028401116401000000008311171561057457600080fd5b91908080601f016020809104026020016040519081016040528093929190818152602001838380828437600081840152601f19601f820116905080830192505050505050509192919290803590602001906401000000008111156105d757600080fd5b8201836020820111156105e957600080fd5b8035906020019184600183028401116401000000008311171561060b57600080fd5b91908080601f016020809104026020016040519081016040528093929190818152602001838380828437600081840152601f19601f82011690508083019250505050505050919291929080359060200190929190505050610b34565b005b6000602052806000526040600020600091509050806000018054600181600116156101000203166002900480601f0160208091040260200160405190810160405280929190818152602001828054600181600116156101000203166002900480156107155780601f106106ea57610100808354040283529160200191610715565b820191906000526020600020905b8154815290600101906020018083116106f857829003601f168201915b505050505090806001018054600181600116156101000203166002900480601f0160208091040260200160405190810160405280929190818152602001828054600181600116156101000203166002900480156107b35780601f10610788576101008083540402835291602001916107b3565b820191906000526020600020905b81548152906001019060200180831161079657829003601f168201915b505050505090806002018054600181600116156101000203166002900480601f0160208091040260200160405190810160405280929190818152602001828054600181600116156101000203166002900480156108515780601f1061082657610100808354040283529160200191610851565b820191906000526020600020905b81548152906001019060200180831161083457829003601f168201915b5050505050908060030154905084565b606080606060008061087286610c85565b905061087c610cb0565b600080838152602001908152602001600020604051806080016040529081600082018054600181600116156101000203166002900480601f0160208091040260200160405190810160405280929190818152602001828054600181600116156101000203166002900480156109325780601f1061090757610100808354040283529160200191610932565b820191906000526020600020905b81548152906001019060200180831161091557829003601f168201915b50505050508152602001600182018054600181600116156101000203166002900480601f0160208091040260200160405190810160405280929190818152602001828054600181600116156101000203166002900480156109d45780601f106109a9576101008083540402835291602001916109d4565b820191906000526020600020905b8154815290600101906020018083116109b757829003601f168201915b50505050508152602001600282018054600181600116156101000203166002900480601f016020809104026020016040519081016040528092919081815260200182805460018160011615610100020316600290048015610a765780601f10610a4b57610100808354040283529160200191610a76565b820191906000526020600020905b815481529060010190602001808311610a5957829003601f168201915b505050505081526020016003820154815250509050600081606001511415610b06576040517f08c379a000000000000000000000000000000000000000000000000000000000815260040180806020018281038252600e8152602001807f4e6f20646174612065786973747300000000000000000000000000000000000081525060200191505060405180910390fd5b8060000151816020015182604001518360600151839350829250819150955095509550955050509193509193565b6000610b3f86610c85565b905060008060008381526020019081526020016000206003015414610baf576040517f08c379a0000000000000000000000000000000000000000000000000000000008152600401808060200182810382526028815260200180610d7e6028913960400191505060405180910390fd5b6040518060800160405280868152602001858152602001848152602001838152506000808381526020019081526020016000206000820151816000019080519060200190610bfe929190610cd8565b506020820151816001019080519060200190610c1b929190610cd8565b506040820151816002019080519060200190610c38929190610cd8565b50606082015181600301559050507ff54e0f0055ffae318a21890316ed523f8a60aa59aaa279dfdcae7176155ec0db816040518082815260200191505060405180910390a1505050505050565b60006060829050600081511415610ca2576000801b915050610cab565b60208301519150505b919050565b6040518060800160405280606081526020016060815260200160608152602001600081525090565b828054600181600116156101000203166002900490600052602060002090601f016020900481019282601f10610d1957805160ff1916838001178555610d47565b82800160010185558215610d47579182015b82811115610d46578251825591602001919060010190610d2b565b5b509050610d549190610d58565b5090565b610d7a91905b80821115610d76576000816000905550600101610d5e565b5090565b9056fe4365727469666963617465207769746820676976656e20696420616c726561647920657869737473a265627a7a723158200251bd442bc449c64da5b164dd33ac61e4efdea14f74061948563801628b309864736f6c63430005100032",
  "source": "//pragma solidity ^0.4.24;\r\n\r\npragma solidity ^0.5.0;\r\n\r\ncontract Certification {\r\n    constructor() public {}\r\n\r\n    struct Certificate {\r\n        string candidate_name;\r\n        string org_name;\r\n        string course_name;\r\n        uint256 expiration_date;\r\n    }\r\n\r\n    mapping(bytes32 => Certificate) public certificates;\r\n\r\n    event certificateGenerated(bytes32 _certificateId);\r\n\r\n    function stringToBytes32(string memory source) private pure returns (bytes32 result) {\r\n        bytes memory tempEmptyStringTest = bytes(source);\r\n        if (tempEmptyStringTest.length == 0) {\r\n            return 0x0;\r\n        }\r\n        assembly {\r\n                result := mload(add(source, 32))\r\n        }\r\n    }\r\n\r\n    function generateCertificate(\r\n        string memory _id,\r\n        string memory _candidate_name,\r\n        string memory _org_name, \r\n        string memory _course_name, \r\n        uint256 _expiration_date) public {\r\n        bytes32 byte_id = stringToBytes32(_id);\r\n        require(certificates[byte_id].expiration_date == 0, \"Certificate with given id already exists\");\r\n        certificates[byte_id] = Certificate(_candidate_name, _org_name, _course_name, _expiration_date);\r\n        emit certificateGenerated(byte_id);\r\n    }\r\n\r\n    function getData(string memory _id) public view returns(string memory, string memory, string memory, uint256) {\r\n        bytes32 byte_id = stringToBytes32(_id);\r\n        Certificate memory temp = certificates[byte_id];\r\n        require(temp.expiration_date != 0, \"No data exists\");\r\n        return (temp.candidate_name, temp.org_name, temp.course_name, temp.expiration_date);\r\n    }\r\n}",
  "sourcePath": "C:/Users/lione/sample 2/second time/Mini-Project-2020/contracts/Certification.sol",
  "compiler": {
    "name": "solc",
    "version": "0.5.16+commit.9c3226ce.Emscripten.clang"
  },
  "schemaVersion": "3.2.4",
  "updatedAt": "2020-09-22T06:36:06.089Z",
  "networkType": "ethereum",
  "devdoc": {
    "methods": {}
  },
  "userdoc": {
    "methods": {}
  }
}